{
  "contractName": "Swap",
  "abi": [
    {
      "inputs": [],
      "stateMutability": "nonpayable",
      "type": "constructor"
    },
    {
      "inputs": [
        {
          "internalType": "address",
          "name": "token",
          "type": "address"
        },
        {
          "internalType": "uint256",
          "name": "amountIn",
          "type": "uint256"
        },
        {
          "internalType": "uint256",
          "name": "amountOutMin",
          "type": "uint256"
        },
        {
          "internalType": "uint256",
          "name": "deadline",
          "type": "uint256"
        }
      ],
      "name": "swapExactTokensForETH",
      "outputs": [],
      "stateMutability": "nonpayable",
      "type": "function"
    }
  ],
  "bytecode": "0x608060405234801561001057600080fd5b50737a250d5630b4cf539739df2c5dacb4c659f2488d6000806101000a81548173ffffffffffffffffffffffffffffffffffffffff021916908373ffffffffffffffffffffffffffffffffffffffff160217905550610942806100746000396000f3fe608060405234801561001057600080fd5b506004361061002b5760003560e01c8063eacad12a14610030575b600080fd5b61004a60048036038101906100459190610507565b61004c565b005b8373ffffffffffffffffffffffffffffffffffffffff166323b872dd3330866040518463ffffffff1660e01b815260040161008993929190610687565b602060405180830381600087803b1580156100a357600080fd5b505af11580156100b7573d6000803e3d6000fd5b505050506040513d601f19601f820116820180604052508101906100db91906105b7565b506000600267ffffffffffffffff8111156100f9576100f8610873565b5b6040519080825280602002602001820160405280156101275781602001602082028036833780820191505090505b509050848160008151811061013f5761013e610844565b5b602002602001019073ffffffffffffffffffffffffffffffffffffffff16908173ffffffffffffffffffffffffffffffffffffffff168152505060008054906101000a900473ffffffffffffffffffffffffffffffffffffffff1673ffffffffffffffffffffffffffffffffffffffff1663ad5c46486040518163ffffffff1660e01b815260040160206040518083038186803b1580156101df57600080fd5b505afa1580156101f3573d6000803e3d6000fd5b505050506040513d601f19601f8201168201806040525081019061021791906104da565b8160018151811061022b5761022a610844565b5b602002602001019073ffffffffffffffffffffffffffffffffffffffff16908173ffffffffffffffffffffffffffffffffffffffff16815250508473ffffffffffffffffffffffffffffffffffffffff1663095ea7b360008054906101000a900473ffffffffffffffffffffffffffffffffffffffff16866040518363ffffffff1660e01b81526004016102c09291906106be565b602060405180830381600087803b1580156102da57600080fd5b505af11580156102ee573d6000803e3d6000fd5b505050506040513d601f19601f8201168201806040525081019061031291906105b7565b5060008054906101000a900473ffffffffffffffffffffffffffffffffffffffff1673ffffffffffffffffffffffffffffffffffffffff166318cbafe585858433876040518663ffffffff1660e01b81526004016103749594939291906106e7565b600060405180830381600087803b15801561038e57600080fd5b505af11580156103a2573d6000803e3d6000fd5b505050506040513d6000823e3d601f19601f820116820180604052508101906103cb919061056e565b505050505050565b60006103e66103e184610766565b610741565b90508083825260208201905082856020860282011115610409576104086108a7565b5b60005b85811015610439578161041f88826104c5565b84526020840193506020830192505060018101905061040c565b5050509392505050565b600081359050610452816108c7565b92915050565b600081519050610467816108c7565b92915050565b600082601f830112610482576104816108a2565b5b81516104928482602086016103d3565b91505092915050565b6000815190506104aa816108de565b92915050565b6000813590506104bf816108f5565b92915050565b6000815190506104d4816108f5565b92915050565b6000602082840312156104f0576104ef6108b1565b5b60006104fe84828501610458565b91505092915050565b60008060008060808587031215610521576105206108b1565b5b600061052f87828801610443565b9450506020610540878288016104b0565b9350506040610551878288016104b0565b9250506060610562878288016104b0565b91505092959194509250565b600060208284031215610584576105836108b1565b5b600082015167ffffffffffffffff8111156105a2576105a16108ac565b5b6105ae8482850161046d565b91505092915050565b6000602082840312156105cd576105cc6108b1565b5b60006105db8482850161049b565b91505092915050565b60006105f083836105fc565b60208301905092915050565b610605816107cb565b82525050565b610614816107cb565b82525050565b6000610625826107a2565b61062f81856107ba565b935061063a83610792565b8060005b8381101561066b57815161065288826105e4565b975061065d836107ad565b92505060018101905061063e565b5085935050505092915050565b61068181610809565b82525050565b600060608201905061069c600083018661060b565b6106a9602083018561060b565b6106b66040830184610678565b949350505050565b60006040820190506106d3600083018561060b565b6106e06020830184610678565b9392505050565b600060a0820190506106fc6000830188610678565b6107096020830187610678565b818103604083015261071b818661061a565b905061072a606083018561060b565b6107376080830184610678565b9695505050505050565b600061074b61075c565b90506107578282610813565b919050565b6000604051905090565b600067ffffffffffffffff82111561078157610780610873565b5b602082029050602081019050919050565b6000819050602082019050919050565b600081519050919050565b6000602082019050919050565b600082825260208201905092915050565b60006107d6826107e9565b9050919050565b60008115159050919050565b600073ffffffffffffffffffffffffffffffffffffffff82169050919050565b6000819050919050565b61081c826108b6565b810181811067ffffffffffffffff8211171561083b5761083a610873565b5b80604052505050565b7f4e487b7100000000000000000000000000000000000000000000000000000000600052603260045260246000fd5b7f4e487b7100000000000000000000000000000000000000000000000000000000600052604160045260246000fd5b600080fd5b600080fd5b600080fd5b600080fd5b6000601f19601f8301169050919050565b6108d0816107cb565b81146108db57600080fd5b50565b6108e7816107dd565b81146108f257600080fd5b50565b6108fe81610809565b811461090957600080fd5b5056fea2646970667358221220cd4bb9a71f3a6c20f4617e88609d66df1d7e134c245bb5100d954695cb9cb7a264736f6c63430008070033",
  "immutableReferences": {},
  "source": "// SPDX-License-Identifier: MIT\n\npragma solidity ^0.8.7;\n\ninterface IUniswap{\n\nfunction swapExactTokensForETH(uint amountIn, uint amountOutMin, address[] calldata path, address to, uint deadline)\n        external\n        // virtual\n        // override\n        // ensure(deadline)\n        returns (uint[] memory amounts);\n        function WETH () external pure returns(address);\n}\n\ninterface IERC20 {\n   \n    function totalSupply() external view returns (uint256);\n    function balanceOf(address account) external view returns (uint256);\n    function transfer(address recipient, uint256 amount) external returns (bool);\n    function allowance(address owner, address spender) external view returns (uint256);\n    function approve(address spender, uint256 amount) external returns (bool);\n    function transferFrom(address sender, address recipient, uint256 amount) external returns (bool);\n    event Transfer(address indexed from, address indexed to, uint256 value);\n    event Approval(address indexed owner, address indexed spender, uint256 value);\n}\n\ncontract Swap{\n    IUniswap uniswap;\n\n    constructor(){\n        uniswap=IUniswap(0x7a250d5630B4cF539739dF2C5dAcb4c659F2488D);\n    }\n    function swapExactTokensForETH(\n        address token,\n        uint amountIn,\n        uint amountOutMin,\n        uint deadline)\n        external {\n            IERC20(token).transferFrom(\n        msg.sender,\n        address(this),\n        amountIn);\n        address [] memory path = new address [](2);\n        path[0]=token;\n        path[1]=uniswap.WETH();\n        IERC20(token).approve(address(uniswap), amountIn);\n        uniswap.swapExactTokensForETH(\n            amountIn,\n            amountOutMin,\n            path,\n            msg.sender,\n            deadline);\n\n        \n        }\n       \n\n}\n\n",
  "sourcePath": "/home/hp/Blockchain App Factory/Rajeeb Github Repo/UNISWAP/contracts/swap.sol",
  "compiler": {
    "name": "solc",
    "version": "0.8.7+commit.e28d00a7.Emscripten.clang"
  },
  "schemaVersion": "3.3.3",
  "updatedAt": "2022-02-02T12:06:09.207Z",
  "networkType": "ethereum",
  "devdoc": {
    "kind": "dev",
    "methods": {},
    "version": 1
  },
  "userdoc": {
    "kind": "user",
    "methods": {},
    "version": 1
  }
}